{
    "_format": "hh-sol-artifact-1",
    "contractName": "CoreConnectBootcampPH",
    "sourceName": "contracts/CoreConnectBootcampPH.sol",
    "abi": [
        {
            "inputs": [
                {
                    "internalType": "string",
                    "name": "github",
                    "type": "string"
                }
            ],
            "name": "getSubmission",
            "outputs": [
                {
                    "components": [
                        {
                            "internalType": "address",
                            "name": "owner",
                            "type": "address"
                        },
                        {
                            "internalType": "string",
                            "name": "github",
                            "type": "string"
                        },
                        {
                            "internalType": "string",
                            "name": "firstname",
                            "type": "string"
                        },
                        {
                            "internalType": "address",
                            "name": "erc20",
                            "type": "address"
                        },
                        {
                            "internalType": "address",
                            "name": "erc721",
                            "type": "address"
                        }
                    ],
                    "internalType": "struct CoreConnectBootcampPH.Submission",
                    "name": "",
                    "type": "tuple"
                }
            ],
            "stateMutability": "view",
            "type": "function"
        },
        {
            "inputs": [
                {
                    "internalType": "string",
                    "name": "firstname",
                    "type": "string"
                },
                {
                    "internalType": "string",
                    "name": "github",
                    "type": "string"
                },
                {
                    "internalType": "address",
                    "name": "erc20",
                    "type": "address"
                },
                {
                    "internalType": "address",
                    "name": "erc721",
                    "type": "address"
                }
            ],
            "name": "recordSubmission",
            "outputs": [],
            "stateMutability": "nonpayable",
            "type": "function"
        },
        {
            "inputs": [
                {
                    "internalType": "string",
                    "name": "",
                    "type": "string"
                }
            ],
            "name": "submissions",
            "outputs": [
                {
                    "internalType": "address",
                    "name": "owner",
                    "type": "address"
                },
                {
                    "internalType": "string",
                    "name": "github",
                    "type": "string"
                },
                {
                    "internalType": "string",
                    "name": "firstname",
                    "type": "string"
                },
                {
                    "internalType": "address",
                    "name": "erc20",
                    "type": "address"
                },
                {
                    "internalType": "address",
                    "name": "erc721",
                    "type": "address"
                }
            ],
            "stateMutability": "view",
            "type": "function"
        }
    ],
    "bytecode": "0x6080604052348015600f57600080fd5b50610eda8061001f6000396000f3fe608060405234801561001057600080fd5b50600436106100415760003560e01c806323509b10146100465780632b21543b14610062578063a0c08d8e14610096575b600080fd5b610060600480360381019061005b919061089a565b6100c6565b005b61007c60048036038101906100779190610939565b610257565b60405161008d959493929190610a10565b60405180910390f35b6100b060048036038101906100ab9190610939565b610413565b6040516100bd9190610b47565b60405180910390f35b6040518060a001604052803373ffffffffffffffffffffffffffffffffffffffff1681526020018481526020018581526020018373ffffffffffffffffffffffffffffffffffffffff1681526020018273ffffffffffffffffffffffffffffffffffffffff1681525060008460405161013f9190610ba5565b908152602001604051809103902060008201518160000160006101000a81548173ffffffffffffffffffffffffffffffffffffffff021916908373ffffffffffffffffffffffffffffffffffffffff16021790555060208201518160010190816101a99190610dd2565b5060408201518160020190816101bf9190610dd2565b5060608201518160030160006101000a81548173ffffffffffffffffffffffffffffffffffffffff021916908373ffffffffffffffffffffffffffffffffffffffff16021790555060808201518160040160006101000a81548173ffffffffffffffffffffffffffffffffffffffff021916908373ffffffffffffffffffffffffffffffffffffffff16021790555090505050505050565b6000818051602081018201805184825260208301602085012081835280955050505050506000915090508060000160009054906101000a900473ffffffffffffffffffffffffffffffffffffffff16908060010180546102b690610beb565b80601f01602080910402602001604051908101604052809291908181526020018280546102e290610beb565b801561032f5780601f106103045761010080835404028352916020019161032f565b820191906000526020600020905b81548152906001019060200180831161031257829003601f168201915b50505050509080600201805461034490610beb565b80601f016020809104026020016040519081016040528092919081815260200182805461037090610beb565b80156103bd5780601f10610392576101008083540402835291602001916103bd565b820191906000526020600020905b8154815290600101906020018083116103a057829003601f168201915b5050505050908060030160009054906101000a900473ffffffffffffffffffffffffffffffffffffffff16908060040160009054906101000a900473ffffffffffffffffffffffffffffffffffffffff16905085565b61041b610671565b60008260405161042b9190610ba5565b90815260200160405180910390206040518060a00160405290816000820160009054906101000a900473ffffffffffffffffffffffffffffffffffffffff1673ffffffffffffffffffffffffffffffffffffffff1673ffffffffffffffffffffffffffffffffffffffff1681526020016001820180546104aa90610beb565b80601f01602080910402602001604051908101604052809291908181526020018280546104d690610beb565b80156105235780601f106104f857610100808354040283529160200191610523565b820191906000526020600020905b81548152906001019060200180831161050657829003601f168201915b5050505050815260200160028201805461053c90610beb565b80601f016020809104026020016040519081016040528092919081815260200182805461056890610beb565b80156105b55780601f1061058a576101008083540402835291602001916105b5565b820191906000526020600020905b81548152906001019060200180831161059857829003601f168201915b505050505081526020016003820160009054906101000a900473ffffffffffffffffffffffffffffffffffffffff1673ffffffffffffffffffffffffffffffffffffffff1673ffffffffffffffffffffffffffffffffffffffff1681526020016004820160009054906101000a900473ffffffffffffffffffffffffffffffffffffffff1673ffffffffffffffffffffffffffffffffffffffff1673ffffffffffffffffffffffffffffffffffffffff16815250509050919050565b6040518060a00160405280600073ffffffffffffffffffffffffffffffffffffffff1681526020016060815260200160608152602001600073ffffffffffffffffffffffffffffffffffffffff168152602001600073ffffffffffffffffffffffffffffffffffffffff1681525090565b6000604051905090565b600080fd5b600080fd5b600080fd5b600080fd5b6000601f19601f8301169050919050565b7f4e487b7100000000000000000000000000000000000000000000000000000000600052604160045260246000fd5b61074982610700565b810181811067ffffffffffffffff8211171561076857610767610711565b5b80604052505050565b600061077b6106e2565b90506107878282610740565b919050565b600067ffffffffffffffff8211156107a7576107a6610711565b5b6107b082610700565b9050602081019050919050565b82818337600083830152505050565b60006107df6107da8461078c565b610771565b9050828152602081018484840111156107fb576107fa6106fb565b5b6108068482856107bd565b509392505050565b600082601f830112610823576108226106f6565b5b81356108338482602086016107cc565b91505092915050565b600073ffffffffffffffffffffffffffffffffffffffff82169050919050565b60006108678261083c565b9050919050565b6108778161085c565b811461088257600080fd5b50565b6000813590506108948161086e565b92915050565b600080600080608085870312156108b4576108b36106ec565b5b600085013567ffffffffffffffff8111156108d2576108d16106f1565b5b6108de8782880161080e565b945050602085013567ffffffffffffffff8111156108ff576108fe6106f1565b5b61090b8782880161080e565b935050604061091c87828801610885565b925050606061092d87828801610885565b91505092959194509250565b60006020828403121561094f5761094e6106ec565b5b600082013567ffffffffffffffff81111561096d5761096c6106f1565b5b6109798482850161080e565b91505092915050565b61098b8161085c565b82525050565b600081519050919050565b600082825260208201905092915050565b60005b838110156109cb5780820151818401526020810190506109b0565b60008484015250505050565b60006109e282610991565b6109ec818561099c565b93506109fc8185602086016109ad565b610a0581610700565b840191505092915050565b600060a082019050610a256000830188610982565b8181036020830152610a3781876109d7565b90508181036040830152610a4b81866109d7565b9050610a5a6060830185610982565b610a676080830184610982565b9695505050505050565b610a7a8161085c565b82525050565b600082825260208201905092915050565b6000610a9c82610991565b610aa68185610a80565b9350610ab68185602086016109ad565b610abf81610700565b840191505092915050565b600060a083016000830151610ae26000860182610a71565b5060208301518482036020860152610afa8282610a91565b91505060408301518482036040860152610b148282610a91565b9150506060830151610b296060860182610a71565b506080830151610b3c6080860182610a71565b508091505092915050565b60006020820190508181036000830152610b618184610aca565b905092915050565b600081905092915050565b6000610b7f82610991565b610b898185610b69565b9350610b998185602086016109ad565b80840191505092915050565b6000610bb18284610b74565b915081905092915050565b7f4e487b7100000000000000000000000000000000000000000000000000000000600052602260045260246000fd5b60006002820490506001821680610c0357607f821691505b602082108103610c1657610c15610bbc565b5b50919050565b60008190508160005260206000209050919050565b60006020601f8301049050919050565b600082821b905092915050565b600060088302610c7e7fffffffffffffffffffffffffffffffffffffffffffffffffffffffffffffffff82610c41565b610c888683610c41565b95508019841693508086168417925050509392505050565b6000819050919050565b6000819050919050565b6000610ccf610cca610cc584610ca0565b610caa565b610ca0565b9050919050565b6000819050919050565b610ce983610cb4565b610cfd610cf582610cd6565b848454610c4e565b825550505050565b600090565b610d12610d05565b610d1d818484610ce0565b505050565b5b81811015610d4157610d36600082610d0a565b600181019050610d23565b5050565b601f821115610d8657610d5781610c1c565b610d6084610c31565b81016020851015610d6f578190505b610d83610d7b85610c31565b830182610d22565b50505b505050565b600082821c905092915050565b6000610da960001984600802610d8b565b1980831691505092915050565b6000610dc28383610d98565b9150826002028217905092915050565b610ddb82610991565b67ffffffffffffffff811115610df457610df3610711565b5b610dfe8254610beb565b610e09828285610d45565b600060209050601f831160018114610e3c5760008415610e2a578287015190505b610e348582610db6565b865550610e9c565b601f198416610e4a86610c1c565b60005b82811015610e7257848901518255600182019150602085019450602081019050610e4d565b86831015610e8f5784890151610e8b601f891682610d98565b8355505b6001600288020188555050505b50505050505056fea264697066735822122051bd16270f95457a309d52f1dfa588b849050bfe2ea827a23d2b463251005a3964736f6c634300081c0033",
    "linkReferences": {},
    "deployedLinkReferences": {}
}